:020000040000FA
:100000000A128A11F32F83160313141C08280928D7
:1000100003280800F30083120313091073080A165B
:100020008A1180230A128A1183120313891406305D
:10003000F2003030F100F10B1B28F20B1B280000FE
:1000400083120313891008000310720D730DF4005E
:100050007408FA007A08031D2E282F28382800304B
:10006000F3000030F2000030F1000030F0009D2875
:100070007008F4007108F5007208F6007308F700C4
:100080001F300310F70CF60CF50CF40CFF3E031DAB
:1000900041287408F8007808F900F217FF30F005DD
:1000A000FF30F105FF30F2050030F3059630FA021B
:1000B000FA1F5B285C2876287A08803A973E031856
:1000C0006228632864282F2801300310F30CF20CF7
:1000D000F10CF00CFF3E031D65280130F40074089C
:1000E000FA07031D7428752864288D2820307A02A9
:1000F000031C7B287C2888282F280130F40003105B
:10010000F00DF10DF20DF30DF40B7F280130FA0222
:100110007A08031D8C288D287D28790803199128D9
:1001200092289D28F009F109F209F309F00A031950
:10013000F10A0319F20A0319F30A080083120313E0
:100140004F088039D4005408D9004F08D400540710
:10015000D5005508DF00CE1FAE28AF28B0285F14A9
:100160005F080319B428B528C4285F0A031DB928FD
:10017000BA28C2280030CF000030CE000030CD00B9
:100180000030CC00CE17CC280030CF000030CE009D
:100190000030CD000030CC0053088039D400540822
:1001A000D9065308D4005407D5005508DE00D21FE5
:1001B000DA28DB28DC285E145E080319E028E12831
:1001C000F0285E0A031DE528E628EE280030D3005B
:1001D0000030D2000030D1000030D000D217F82813
:1001E0000030D3000030D2000030D1000030D00009
:1001F0005E080319FC28FD2802295F08031D012958
:1002000002290B290030CF000030CE000030CD0095
:100210000030CC00FE2B4C08D4005408F0005208EB
:100220000A168A111C240A128A11710883120313F8
:10023000E5007008E4006408D400D501D601D701B8
:100240005708DD005608DC005508DB005408DA00CA
:100250006508D400D501D601D7015708E300560838
:10026000E2005508E1005408E0004D08D4005408AD
:10027000F00051080A168A111C240A128A1171080A
:1002800083120313E5007008E4006408D400D5016C
:10029000D601D7015408DA07550803110318013EA7
:1002A00003195329DB07560803110318013E0319EC
:1002B0005A29DC07570803110318013E0319612965
:1002C000DD076508D400D501D601D7015408E00741
:1002D000550803110318013E03196F29E107560859
:1002E00003110318013E03197629E2075708031189
:1002F0000318013E03197D29E3074E08D400540872
:10030000F00050080A168A111C240A128A1171087A
:1003100083120313E5007008E4006408D400D501DB
:10032000D601D7015408DA07550803110318013E16
:1003300003199B29DB07560803110318013E031913
:10034000A229DC07570803110318013E0319A92944
:10035000DD076508D400D501D601D7015408E007B0
:10036000550803110318013E0319B729E107560880
:1003700003110318013E0319BE29E20757080311B0
:100380000318013E0319C529E3070830D400031000
:10039000DA0DDB0DDC0DDD0DD40BC7294D08D400C3
:1003A0005408F00050080A168A111C240A128A11F7
:1003B000710883120313E5007008E4006408D40098
:1003C0006508D500D601D7015408DA07550803118E
:1003D0000318013E0319ED29DB0756080311031822
:1003E000013E0319F429DC07570803110318013EE5
:1003F0000319FB29DD074C08D4005408F00051080C
:100400000A168A111C240A128A1171088312031316
:10041000E5007008E4006408D4006508D500D60142
:10042000D7015408DA07550803110318013E0319D0
:100430001A2ADB07560803110318013E0319212A63
:10044000DC07570803110318013E0319282ADD07AA
:100450000830D4000310DA0DDB0DDC0DDD0DD40BFC
:100460002A2A4C08D4005408F00050080A168A11B1
:100470001C240A128A11710883120313E500700804
:10048000E4006408D4006508D500D601D7015408FB
:10049000DA07550803110318013E0319502ADB0738
:1004A000560803110318013E0319572ADC075708A1
:1004B00003110318013E03195E2ADD074D08D4001D
:1004C0005408F00052080A168A111C240A128A11D4
:1004D000710883120313E5007008E4006408D40077
:1004E0006508D500D601D7015408E0075508031167
:1004F0000318013E03197D2AE1075608031103186A
:10050000013E0319842AE207570803110318013E2C
:1005100003198B2AE3074E08D4005408F000510851
:100520000A168A111C240A128A11710883120313F5
:10053000E5007008E4006408D4006508D500D60121
:10054000D7015408E007550803110318013E0319A9
:10055000AA2AE107560803110318013E0319B12A1C
:10056000E207570803110318013E0319B82AE307ED
:100570004E08D4005408F00052080A168A111C24B0
:100580000A128A11710883120313E5007008E4004F
:100590006408D4006508D500D601D70108300310DF
:1005A000D40DD50DD60DD70DFF3E031DCF2A54080F
:1005B000E007550803110318013E0319E02AE1077B
:1005C000560803110318013E0319E72AE2075708EA
:1005D00003110318013E0319EE2AE3075A08D40059
:1005E0005B08D5005C08D6005D08D7001830031002
:1005F000D70CD60CD50CD40CFF3E031DF72A54089B
:10060000E007550803110318013E0319082BE10701
:10061000560803110318013E03190F2BE207570870
:1006200003110318013E0319162BE3070830D40009
:100630000310DA0DDB0DDC0DDD0DD40B182B5F087C
:100640005E07D400D501D50D5408823EE40055085C
:100650000318013EFF3EE5004A2B0130D400031091
:10066000E00DE10DE20DE30DD40B2F2BDD1F392B37
:100670003A2B3B2B60140130D4000310DA0DDB0D54
:10068000DC0DDD0DD40B3D2BFF30E4070318E50A2C
:10069000FF30E507E21F4D2B4E2B2D2BDE01DD1F1A
:1006A000522B532B6F2BFF305A05D400FF305B05C4
:1006B000D500FF305C05D6007F305D05D7005708B8
:1006C0005604550454040319662B672B6A2BDE016C
:1006D000DE0A6F2B601C6D2B6E2B6F2B672B5E0859
:1006E0000319732B742BA52B0130E007003003187E
:1006F0000130E107003003180130E2070030031831
:100700000130E307631C852B862BA52B6008D400E2
:100710006108D5006208D6006308D7000130D80010
:10072000570DD70CD60CD50CD40CD80B902B5708E2
:10073000E3005608E2005508E1005408E0000130EB
:10074000E4070318E50A0030E5076508803AFF0072
:1007500080307F02031DAE2BFF306402031CB12BDF
:10076000B22BBD2B7F3083120313E3008030E200F5
:100770000030E1000030E000F22B83120313650823
:10078000803AFF0080307F02031DC82B01306402D5
:100790000318CB2BCC2BD82B003083120313E30090
:1007A0000030E2000030E1000030E000D901F22B1F
:1007B000831203136408D4005408DF00FF30E005FF
:1007C000FF30E1057F30E2050030E3055F1CE92BD7
:1007D000EA2BEB2BE2175F08D4000310540CD50072
:1007E0005508E3005908D4005408E3046308CF0017
:1007F0006208CE006108CD006008CC0008008316B6
:100800000313A400831203136908F3006808F200BD
:100810006708F1006608F0000A128A1124200A1203
:100820008A11710883160313A1007008A000AB01A0
:10083000AC01A901AA010130AD000030AE00831265
:1008400003136908F3006808F2006708F1006608FE
:10085000F0000030F7000030F6000030F500003006
:10086000F4000A168A11A2260A128A110318392CDA
:100870003A2C882CBF3083120313CF008030CE0077
:100880000030CD000030CC006908D3006808D200E9
:100890006708D1006608D0000A128A119E200A1249
:1008A0008A11831203134F08E9004E08E8004D082F
:1008B000E7004C08E6002D30EC00831603132408F3
:1008C0008400831203136C088313800001308316A5
:1008D0000313A9070318AA0A0030AA07882C0A30B4
:1008E000F0000030F1002108F3002008F2000A16A1
:1008F0008A113B260A128A11710883160313A1007C
:100900007008A0000130AB070318AC0A0030AC0738
:100910008316031320082104031D8F2C902C6F2CA9
:10092000AC2D2B032C04031D962C972C9C2C0130F2
:10093000AD000030AE00DE2C0230A2000030A3007B
:10094000C82C831603132E0883120313A1008316E9
:1009500003132D0883120313A0000A30A2000030F5
:10096000A3000A168A1143240A128A118312031360
:10097000210883160313AE00831203132008831685
:100980000313AD000130A2070318A30A0030A30728
:100990002C08803A83120313EC00831603132308F8
:1009A000803A831203136C02031DDA2C831603139F
:1009B00022082B020318DD2CDE2CA12C8316031336
:1009C0002D0883120313A400831603132E08831229
:1009D0000313A5000030A51BFF30A600A7000130BF
:1009E0000A168A1144270A128A1183120313270850
:1009F000B5002608B4002508B3002408B200690831
:100A0000B9006808B8006708B7006608B6000A129F
:100A10008A1591200A128A1183120313350883164E
:100A20000313A80083120313340883160313A700CB
:100A300083120313330883160313A60083120313D0
:100A4000320883160313A5002E0883120313A30094
:100A5000831603132D0883120313A20083160313B6
:100A60002808F3002708F2002608F1002508F00006
:100A70000A128A1124200A128A11710883120313A0
:100A8000A1007008A0000A168A1143240A128A11D4
:100A9000831203132008A4002108A5000030A51B21
:100AA000FF30A600A70001300A168A1144270A1257
:100AB0008A11831203132708B5002608B4002508FD
:100AC000B3002408B2006908B9006808B8006708D4
:100AD000B7006608B6000A168A11F8230A128A11AE
:100AE000831203133508E9003408E8003308E700EF
:100AF0003208E600831603132808F3002708F200E3
:100B00002608F1002508F0000A128A1124200A1292
:100B10008A117008303E83120313EC00831603130E
:100B20002908240783120313ED006D0884006C0864
:100B300083138000013083160313A9070318AA0A40
:100B40000030AA07FF30AB070318AC0AFF30AC0730
:100B50000130AD000030AE002B082C04031DB12D78
:100B6000B22D912C2E3083120313EC008316031345
:100B70002908240783120313ED006D0884006C0814
:100B800083138000013083160313A9070318AA0AF0
:100B90000030AA070130A2000030A300F62D831612
:100BA00003132E0883120313A100831603132D08C9
:100BB00083120313A0000A30A2000030A3000A161B
:100BC0008A1143240A128A118312031321088316FF
:100BD0000313AE0083120313200883160313AD0022
:100BE0000130A2070318A30A0030A30783120313DE
:100BF0006B08803AEC00831603132308803A8312B3
:100C000003136C02031D0A2E83160313220883129A
:100C100003136A0203180D2E0E2ECF2D8316031315
:100C20002D0883120313A400831603132E088312C6
:100C30000313A5000030A51BFF30A600A70001305C
:100C40000A168A1144270A128A11831203132708ED
:100C5000CF002608CE002508CD002408CC00690866
:100C6000F3006808F2006708F1006608F0000A1255
:100C70008A1124200A128A11700883120313A40017
:100C80007108A5000030A51BFF30A600A7000130A9
:100C90000A168A1144270A128A118312031327089D
:100CA000B5002608B4002508B3002408B20069087E
:100CB000B9006808B8006708B7006608B6000A16E9
:100CC0008A11F8230A128A11831203133508D300FC
:100CD0003408D2003308D1003208D0000A128A1139
:100CE0009E200A128A11831203134F0883160313DE
:100CF000A800831203134E0883160313A700831260
:100D000003134D0883160313A600831203134C0824
:100D100083160313A500280883120313E900831622
:100D20000313270883120313E8008316031326080E
:100D300083120313E700831603132508831203139A
:100D4000E6006908F3006808F2006708F100660829
:100D5000F0000A128A1124200A128A110130831627
:100D60000313AD000030AE00831203136B0883162B
:100D70000313AC00831203136A0883160313AB003A
:100D8000DC2F2B032C04031DC62EC72ECC2E0130C6
:100D9000AD000030AE000E2F0230A2000030A300E4
:100DA000F82E831603132E0883120313A100831653
:100DB00003132D0883120313A0000A30A200003091
:100DC000A3000A168A1143240A128A1183120313FC
:100DD000210883160313AE00831203132008831621
:100DE0000313AD000130A2070318A30A0030A307C4
:100DF0002C08803A83120313EC0083160313230894
:100E0000803A831203136C02031D0A2F8316031307
:100E100022082B0203180D2F0E2FD12E8316031339
:100E20002D0883120313A400831603132E088312C4
:100E30000313A5000030A51BFF30A600A70001305A
:100E40000A168A1144270A128A11831203132708EB
:100E5000B5002608B4002508B3002408B2006908CC
:100E6000B9006808B8006708B7006608B6000A123B
:100E70008A1591200A128A118312031335088316EA
:100E80000313A80083120313340883160313A70067
:100E900083120313330883160313A600831203136C
:100EA000320883160313A5002E0883120313A30030
:100EB000831603132D0883120313A2008316031352
:100EC0002808F3002708F2002608F1002508F000A2
:100ED0000A128A1124200A128A117108831203133C
:100EE000A1007008A0000A168A1143240A128A1170
:100EF000831203132008A4002108A5000030A51BBD
:100F0000FF30A600A70001300A168A1144270A12F2
:100F10008A11831203132708B5002608B400250898
:100F2000B3002408B2006908B9006808B80067086F
:100F3000B7006608B6000A168A11F8230A128A1149
:100F4000831203133508E9003408E8003308E7008A
:100F50003208E600831603132808F3002708F2007E
:100F60002608F1002508F0000A128A1124200A122E
:100F70008A117008303E83120313EC0083160313AA
:100F80002908240783120313ED006D0884006C0800
:100F900083138000013083160313A9070318AA0ADC
:100FA0000030AA07FF30AB070318AC0AFF30AC07CC
:100FB0000130AD000030AE002B082C04031DE12FE2
:100FC000E22FC12E0A3083120313EC0083160313A1
:100FD0002908240783120313ED006D0884006C08B0
:100FE0008313800008008313B7308400CA300A16C8
:100FF0008A118C230A128A1183010A128A15062D7E
:10100000F00083160313981C06280728012870088F
:101010008312031399000800F30083160313871249
:10102000731D1328142818287208940087151C288B
:1010300070087204940087117308710483120313FB
:1010400094000800831203132408031D282829286C
:1010500056282008A5002108A6002208A70023087A
:10106000A80006300310A50DA60DA70DA80DFF3E84
:10107000031D32282808F3002708F2002608F10093
:101080002508F0000030F7003D30F6000930F5008B
:101090000030F4000A168A11D5250A128A15700844
:1010A000FF3E831603139900181182282008A5001B
:1010B0002108A6002208A7002308A8000430031076
:1010C000A50DA60DA70DA80DFF3E031D5F2828083E
:1010D000F3002708F2002608F1002508F000003090
:1010E000F7003D30F6000930F5000030F4000A1634
:1010F0008A11D5250A128A157008FF3E831603133C
:1011000099001815181398161812831203139817BC
:10111000181318161811981083160313871707133E
:1011200008008312031339088039BA003A08C30053
:101130003908BA003A07BB003B08CA00B81FA1280B
:10114000A228A3284A144A080319A728A828B828BF
:101150004A0A031DAC28AD28B5280030B90000307C
:10116000B8000030B7000030B600B817B901C02889
:101170000030B9000030B8000030B7000030B600D1
:1011800035088039BA003A08C3063508BA003A076C
:10119000BB003B08CB00B41FCE28CF28D0284B146F
:1011A0004B080319D428D528E5284B0A031DD92854
:1011B000DA28E2280030B5000030B4000030B30077
:1011C0000030B200B417B501ED280030B500003092
:1011D000B4000030B3000030B200350834043304EA
:1011E0003204031DF428F5280E290030B900003020
:1011F000B8000030B7000030B6008030B8047F304F
:10120000B9044308BA003A08B9043908B5003808E7
:10121000B4003708B3003608B2006D2A4A08031D2F
:10122000122913291C290030B5000030B400003009
:10123000B3000030B2006D2A4A08BA00BB013B0877
:10124000BD004B083A02BC00031CBD033C087F3EB6
:10125000C4003D080318013E003EC5003908C20025
:101260003808C1003708C0003608BF000030B90098
:101270000030B8000030B7000030B6000030C900C0
:101280000030C8000030C7000030C600CB019229F2
:101290004B0803194C294D296D290130BA00031060
:1012A000BF0DC00DC10DC20DBA0B4F290130BA00E0
:1012B0000310B60DB70DB80DB90DBA0B5829C91FDB
:1012C00062296329642936140130BA000310C60D5F
:1012D000C70DC80DC90DBA0B662935084202031D9A
:1012E0007B2934084102031D7B2933084002031D7A
:1012F0007B2932083F02031C7E297F298E2949174A
:101300003208BF023308031C330FC0023408031C29
:10131000340FC1023508031C350FC2020130BA0078
:101320003A08CB071A304B02031C97299829482901
:101330004208410440043F0403199F29A029BF2902
:101340004614BF290130BA000310B60DB70DB80D11
:10135000B90DBA0BA429C91FAE29AF29B02936147B
:101360000130BA000310C60DC70DC80DC90DBA0B68
:10137000B229FF30C4070318C50AFF30C507B81FDC
:10138000C229C329A229CB01C91FC729C829E42919
:10139000FF304605BA00FF304705BB00FF30480567
:1013A000BC007F304905BD003D083C043B043A04C5
:1013B0000319DB29DC29DF29CB01CB0AE429361C00
:1013C000E229E329E429DC294B080319E829E92962
:1013D0001A2A0130B607003003180130B707003071
:1013E00003180130B807003003180130B907391C61
:1013F000FA29FB291A2A3608BA003708BB00380830
:10140000BC003908BD000130BE003D0DBD0CBC0C58
:10141000BB0CBA0CBE0B052A3D08B9003C08B8004D
:101420003B08B7003A08B6000130C4070318C50AE4
:101430000030C5074508803AFF0080307F02031D59
:10144000232AFF304402031C262A272A352AFF308C
:1014500083120313C4000030C5000030B90000300F
:10146000B8000030B7000030B600831203134508FF
:10147000803AFF0080307F02031D402A0130440281
:101480000318432A442A512A83120313C401C501B5
:101490000030B9000030B8000030B7000030B600AE
:1014A000C301831203134408BA003A08CA004A1C55
:1014B0005A2A5B2A5D2AB817612A7F30BA003A0897
:1014C000B8054A08BA0003103A0CBB003B08B90043
:1014D0004308BA003A08B90405290800730880399E
:1014E00083120313A0002008F8007308A00020074F
:1014F000A1002108FA00F21F7E2A7F2A802A7A148E
:101500007A080319842A852A952A7A0A031D892ACA
:101510008A2A922A0030F3000030F2000030F100F5
:101520000030F000F217F3019D2A0030F300003084
:10153000F2000030F1000030F00077088039A000A0
:101540002008F900790878060319A72AA82AA92AE9
:1015500078177708A0002007A1002108F900F61FDE
:10156000B22AB32AB42A791479080319B82AB92AF5
:10157000C92A790A031DBD2ABE2AC62A0030F700EF
:101580000030F6000030F5000030F400F617F701E7
:10159000D12A0030F7000030F6000030F5000030AE
:1015A000F4007A0879020318D62AD72A1B2B781F51
:1015B000DA2ADB2ADF2A8030A0002008F8067A0821
:1015C000A0002008FB007908A0002008FA007B0892
:1015D000A0002008F9007008A0002008FB00740893
:1015E000A0002008F0007B08A0002008F40071088B
:1015F000A0002008FB007508A0002008F1007B086F
:10160000A0002008F5007208A0002008FB00760862
:10161000A0002008F2007B08A0002008F600730854
:10162000A0002008FB007708A0002008F3007B083A
:10163000A0002008F700FB017908A000A101210803
:10164000A3007A082002A200031CA3032308803A07
:10165000FF0080307F02031D2F2B1A302202031C53
:10166000322B332B742B7308720471047004031D26
:101670003A2B3C2B01303D2B003083120313A0008A
:101680002008FB000030F3000030F2000030F100D1
:101690000030F0007908A0002008FA007A2B7B1CAB
:1016A000522B532B5E2B7B0883120313A0000310D5
:1016B000200C0138A1002108FB00602B0310FB0C5B
:1016C000701C632B642B652BFB17013083120313F3
:1016D000A000730DF30CF20CF10CF00CA00B692BB5
:1016E0000130A0002008FA0779087A02031C792B40
:1016F0007A2B4F2B781B7D2B7E2BCD2B7A08031D4D
:10170000822B832B8C2B0030F3000030F200003052
:10171000F1000030F000052D7408F0077508031182
:101720000318013E0319952BF107760803110318DE
:10173000013E03199C2BF207770803110318013EA1
:101740000319A32BF307731CA62BA72B852C7B1C3B
:10175000AA2BAB2BB62B7B0883120313A00003101C
:10176000200C0138A1002108FB00B82B0310FB0C52
:10177000701CBB2BBC2BBD2BFB170130831203133A
:10178000A000730DF30CF20CF10CF00CA00BC12BAC
:101790000130A0002008FA07852C7308803AFF006A
:1017A0007708803A7F02031DDF2B76087202031D43
:1017B000DF2B75087102031DDF2B740870020318FC
:1017C000E22BE32B3D2CFF3083120313A000FF30EC
:1017D000A100FF30A200FF30A3007408A400750828
:1017E000A5007608A6007708A7007008A402710873
:1017F000031C710FFC2BFD2BA5027208031C720F3A
:10180000022C032CA6027308031C730F082C092C4E
:10181000A7022408A00725080318250F102C112C57
:10182000A10726080318260F162C172CA207270835
:101830000318270AA3072308F3002208F20021084F
:10184000F1002008F0008030A0002008F806FB0915
:10185000FB0A7B08031D2D2C2E2C4B2C0130F0078E
:10186000003003180130F107003003180130F2078F
:10187000003003180130F3074B2C7408F002750890
:10188000031C750FF1027608031C760FF20277082D
:10189000031C770FF3027308720471047004031DB4
:1018A000522C532C812C7B08031D572C582C812C37
:1018B0000030F3000030F2000030F1000030F000A2
:1018C000052D013083120313A0000310F00DF10D5C
:1018D000F20DF30DA00B652CFB1F6F2C702C712CDF
:1018E00070147B1C742C752C782C0314FB0D7A2C33
:1018F0000310FB0D7A0803197E2C7F2C812C0130FC
:10190000FA02F21F842C852C612CF901FB1F892C13
:101910008A2C982C7B087F3903198F2C902C932CC0
:10192000F901F90A982C701C962C972C982C902C65
:10193000790803199C2C9D2CD32C0130F007003022
:1019400003180130F107003003180130F2070030AE
:1019500003180130F307731CAE2CAF2CD32C700886
:1019600083120313A0007108A1007208A20073087B
:10197000A3000130A400230DA30CA20CA10CA00C09
:10198000A40BBB2C2308F3002208F2002108F1006D
:101990002008F0007A0A0319CE2CCF2CD32C01306A
:1019A000A0002008FA077A0A0319D72CD82CDD2CBE
:1019B0007A08031DDC2CDD2CEB2C0030F30000300A
:1019C000F2000030F1000030F0007A08031DE92C2D
:1019D000EA2CEB2CF8017A1CEE2CEF2CF12CF217F0
:1019E000F72C7F3083120313A0002008F2057A0839
:1019F00083120313A0000310200CA1002108F300A0
:101A0000F81F032D042D052DF31708008316031767
:101A100088018901003083120313A3000030A20063
:101A20002530A1008030A000A401A40A0A128A1562
:101A300022200A128A15831603130713871707102B
:101A40008710071183120313071087140715F0017D
:101A5000F101F20120300A128A150C200A128A15AF
:101A600083160313860188018901831203138801F9
:101A700089010A168A11D9240A128A150A168A11AE
:101A80009D230A128A15F401F40A01300A168A11FC
:101A9000D4230A128A150130F3008030F4000A16AC
:101AA0008A116A240A128A15073083160313AF00BD
:101AB0002F08F40001300A168A11D4230A128A155D
:101AC0000530F3008030F4000A168A116A240A12E5
:101AD0008A150D3083160313AF002F08F400013070
:101AE0000A168A11D4230A128A150930F3008030AD
:101AF000F4000A168A116A240A128A158312031343
:101B000007150710C73083160313AF00872DAF0BDF
:101B1000862D8A2D01300A168A1186230A128A150B
:101B20000A168A1194230A128A1583160313AF002A
:101B30002F08BF00C73083160313AF009F2DAF0BD4
:101B40009E2DA22D8312031307148710C73083160E
:101B50000313AF00AB2DAF0BAA2DAE2D02300A162A
:101B60008A1186230A128A150A168A1194230A12E8
:101B70008A1583160313AF002F08BE00C7308316E3
:101B80000313AF00C32DAF0BC22DC62D8312031359
:101B900087140711C73083160313AF00CF2DAF0B87
:101BA000CE2DD22D03300A168A1186230A128A15E9
:101BB0000A168A1194230A128A1583160313AF009A
:101BC0002F08BD00403083120313CF00A030CE0099
:101BD0000030CD000030CC004330B5007F30B40081
:101BE0000030B3000030B200831603133F08AF008B
:101BF000B001B101B201320883120313A7008316AA
:101C00000313310883120313A6008316031330084D
:101C100083120313A500831603132F0883120313E3
:101C2000A40001300A168A1144270A128A15831269
:101C300003132708B9002608B8002508B7002408B0
:101C4000B6000A128A1591200A128A15831203130C
:101C50003508D3003408D2003308D1003208D00050
:101C60000A128A119E200A128A15831203134F0842
:101C700083160313BA00831203134E08831603134B
:101C8000B900831203134D0883160313B80083129F
:101C900003134C0883160313B7003A088312031387
:101CA000E90083160313390883120313E80083162F
:101CB0000313380883120313E7008316031337084E
:101CC00083120313E6000230EA000030EB00C53057
:101CD0000A128A11FF230A128A15F401F40A02304B
:101CE0000A168A11D4230A128A15C530F30000306F
:101CF000F4000A168A116A240A128A15053083161E
:101D00000313AF002F08F40002300A168A11D423FF
:101D10000A128A151830F3008030F4000A168A116E
:101D20006A240A128A157C300A128A1500200A12C7
:101D30008A150D30F1008030F2000630831603134F
:101D4000AF002F08F3000A168A119A240A128A1586
:101D50003A300A128A1500200A128A1520300A1217
:101D60008A1500200A128A15C530F1000030F200F1
:101D7000053083160313AF002F08F3000A168A11EB
:101D80009A240A128A1556300A128A1500200A125D
:101D90008A152C300A128A1500200A128A15203062
:101DA0000A128A1500200A128A15831603133E08A8
:101DB0000A168A1177250A128A1583160313AF00B3
:101DC000B0012F08BB003008BC000730AF002F085F
:101DD000F40002300A168A11D4230A128A158316D7
:101DE00003133B08F3003C08F4000A168A116A2426
:101DF0000A128A151030F1008030F2000630831686
:101E00000313AF002F08F3000A168A119A240A124E
:101E10008A153A300A128A1500200A128A152030D3
:101E20000A128A1500200A128A15831603133B082A
:101E3000F1003C08F2000430AF002F08F3000A164E
:101E40008A119A240A128A152C300A128A15002047
:101E50000A128A1520300A128A1500200A128A15E1
:101E6000831603133D08AF00B001B101B20132087F
:101E700083120313A700831603133108831203137D
:101E8000A60083160313300883120313A5008316DC
:101E900003132F0883120313A40000300A168A11BB
:101EA00044270A128A158312031327088316031383
:101EB000B60083120313260883160313B50083129A
:101EC0000313250883160313B40083120313240895
:101ED00083160313B300360883120313E900831635
:101EE0000313350883120313E80083160313340821
:101EF00083120313E70083160313330883120313BB
:101F0000E6000130EA000030EB00C0300A128A110E
:101F1000FF230A128A150C3083160313AF002F0813
:101F2000F40002300A168A11D4230A128A15C0302E
:101F3000F3000030F4000A168A116A240A128A1586
:101F4000103083160313AF002F08F40002300A1676
:101F50008A11D4230A128A151630F3008030F40057
:101F60000A168A116A240A128A151A308316031374
:101F7000B000F730AF00AF0BBB2FB00BBB2FC02FA3
:101F80001330F1008030F200063083160313AF00E7
:101F90002F08F3000A168A119A240A128A153A3079
:101FA0000A128A1500200A128A1520300A128A1590
:101FB00000200A128A15C030F1000030F20004300F
:101FC00083160313AF002F08F3000A168A119A2410
:101FD0000A128A1543300A128A1500200A128A153D
:101FE0007C300A128A1500200A128A1520300A1243
:101FF0008A1500200A128A15432D0A128A11002818
:10200000FF1B0A2883137F1883170008840A03190B
:10201000FF0A080010308A000408840A820700348E
:10202000533431343A340034533432343A34003493
:10203000533433343A340034533431340034533469
:10204000323400345334333400344334003456349F
:0220500000345A
:10270000F00070088312031388000800F0007008BE
:10271000831203139300080064008001840A0406F6
:102720000319003404068D2B0A128A1103200A169D
:102730008A11831203131308080000300A128A1149
:102740000A200A168A1101300A128A110A200A1672
:102750008A110800F20083120313091472080A1682
:102760008A1180230A168A118312031389140D30EB
:10277000F100F10BB92B8312031389100800F30049
:10278000F201731CC42BC52BC92B7008F100710812
:10279000F2070310F00D0310F30C7308031DD12B87
:1027A000D22BC12B72080800F6007603031DD92B2B
:1027B000DA2BE62B74087F3EF5007508F7007708E2
:1027C0000A128A110A200A168A11F72B023076069D
:1027D000031DEB2BEC2BF72B7408BF3EF50075089F
:1027E000F70077080A128A110A200A168A110800CF
:1027F000803083120313B5063908F3003808F2005D
:102800003708F1003608F0003508F7003408F60004
:102810003308F5003208F4000A128A156E220A16EF
:102820008A11730883120313B5007208B40071088B
:10283000B3007008B2000800F800F401F501700858
:10284000F200F3017208F6007308F700781C292CD7
:102850002A2C302C7608F4070318F50A7708F507B8
:1028600001300310F60DF70DFF3E031D312C031050
:10287000F80C7808031D3D2C3E2C262C7508F10021
:102880007408F0000800FB01FC0183120313201CF4
:102890004A2C4B2C512C2208FB070318FC0A230856
:1028A000FC0701300310A20DA30DFF3E031D522CA7
:1028B00001300310A10CA00CFF3E031D592C200871
:1028C0002104031D642C652C452C7C08A1007B0889
:1028D000A0000800F501F601852C75087307840037
:1028E00076080318760A7407FF000A168A1100207A
:1028F0000A168A110A168A11AA230A168A110130A9
:10290000F5070318F60A0030F60775087307840008
:1029100076080318760A740783120313FF000A1659
:102920008A1100200A168A11003A031D982C992C4E
:102930006D2C0800F501F601F501F601B72C7508BC
:102940007107840076080318760A7207FF000A16DA
:102950008A1100200A168A110A128A1500200A1606
:102960008A110130F5070318F60A0030F6077608D9
:10297000803AF40080307402031DC02C7308750285
:102980000318C32CC42CD82C750871078400760852
:102990000318760A720783120313FF000A168A11BE
:1029A00000200A168A11003A031DD72CD82C9F2C20
:1029B000080000300A168A1180230A168A111A307C
:1029C000F500F830F400F40BE32CF50BE32C0000D9
:1029D00030300A128A110A200A168A110730F500CF
:1029E0007D30F400F40BF22CF50BF22C30300A128F
:1029F0008A110A200A168A110F30F5004730F400B8
:102A0000F40B002DF50B002D052D30300A128A1124
:102A10000A200A168A1138300A128A110A200A1668
:102A20008A110C300A128A110A200A168A110630FD
:102A30000A128A110A200A168A110800F601F31FE9
:102A4000222D232D2A2DF209F309F20A0319F30A84
:102A5000F601F60AF11F2D2D2E2D332DF009F10967
:102A6000F00A0319F10A700871040319382D392D81
:102A7000682DF501F50A472D01300310F00DF10D19
:102A8000FF3E031D3D2D0130F4007408F507F11FD2
:102A90004A2D4B2D3C2D71087302031D512D7008DA
:102AA0007202031C542D552D5B2D7008F202710823
:102AB000031CF303F30201300310F10CF00CFF3E92
:102AC000031D5C2D0130F502031D672D682D4B2D74
:102AD000760803196C2D6D2D722DF209F309F20A97
:102AE0000319F30A7308F1007208F000080083125A
:102AF0000313A5006430F0000030F1002508F90050
:102B0000FA017908F2007A08F3000A168A113B26C6
:102B10000A168A117008FB007B0883120313A400B5
:102B20002408303EF9007908A0006430F9007908E3
:102B3000F00024080A168A11BF230A168A11FA0027
:102B40007A0883120313A5020A30F0000030F10066
:102B50002508F900FA017908F2007A08F3000A164C
:102B60008A113B260A168A117008303EFB007B084A
:102B700083120313A1000A30F0000030F100250891
:102B8000F900FA017908F2007A08F3000A168A11AE
:102B90001E250A168A117008303EFB007B0883123E
:102BA0000313A200A301203008000030FC00003015
:102BB000FB000030FA000030F90073087204710461
:102BC00070040319E42DE52D322EFD01FD0AF52DCB
:102BD0000130F8000310F00DF10DF20DF30DF80BBC
:102BE000EA2D0130F8007808FD07F31FF82DF92DC4
:102BF000E82D0130F8000310F90DFA0DFB0DFC0D66
:102C0000F80BFB2D73087702031D102E7208760255
:102C1000031D102E71087502031D102E700874021A
:102C2000031C132E142E232E7008F4027108031CAB
:102C3000710FF5027208031C720FF6027308031C71
:102C4000730FF702791401300310F30CF20CF10C3E
:102C5000F00CFF3E031D242E0130FD02031D312E1A
:102C6000322EF92D7C08F3007B08F2007A08F1007F
:102C70007908F0000800F601F11F3F2E402E472E84
:102C8000F009F109F00A0319F10AF601F60AF31F37
:102C90004A2E4B2E542EF209F309F20A0319F30AB5
:102CA0000130F4007408F606F701F80170087104A9
:102CB00003195B2E5C2E932EF501F50A6A2E013066
:102CC0000310F00DF10DFF3E031D602E0130F400E6
:102CD0007408F507F11F6D2E6E2E5F2E0130031064
:102CE000F70DF80DFF3E031D6F2E71087302031DD3
:102CF0007B2E70087202031C7E2E7F2E862E70089B
:102D0000F2027108031CF303F3027714013003107D
:102D1000F10CF00CFF3E031D872E0130F502031D60
:102D2000922E932E6E2E76080319972E982E9D2E96
:102D3000F709F809F70A0319F80A7808F100770883
:102D4000F000080000307005F80000307105F9004F
:102D500080307205FA007F307305FB007B087A042F
:102D600079047804031DB52EB62EBE2E0030F30074
:102D70000030F2000030F1000030F0000030740547
:102D8000F80000307505F90080307605FA007F30D4
:102D90007705FB007B087A0479047804031DD12EA3
:102DA000D22EDA2E0030F7000030F6000030F500A9
:102DB0000030F400F31FDD2EDE2E022F0030F8006D
:102DC0000030F9000030FA008030FB007008F80293
:102DD0007108031C710FED2EEE2EF9027208031C10
:102DE000720FF32EF42EFA027308031C730FF92EE0
:102DF000FA2EFB027B08F3007A08F2007908F10052
:102E00007808F000F71F052F062F2A2F0030F80052
:102E10000030F9000030FA008030FB007408F8023E
:102E20007508031C750F152F162FF9027608031C61
:102E3000760F1B2F1C2FFA027708031C770F212F08
:102E4000222FFB027B08F7007A08F6007908F500CC
:102E50007808F4008030F3068030F70677087302B4
:102E6000031D3C2F76087202031D3C2F750871026A
:102E7000031D3C2F7408700203183F2F402F422F70
:102E80000310432F0314080083120313AC002C0813
:102E900003194B2F4C2F602FA71F4F2F502F602F40
:102EA0002409AE002509AF002609B0002709B100AA
:102EB000AE0A0319AF0A0319B00A0319B10A682F41
:102EC0002708B1002608B0002508AF002408AE008E
:102ED0002708260425042404031D6F2F702F792F43
:102EE0000030A7000030A6000030A5000030A4008C
:102EF000FF2F9630A8002808AD008B2F0130A800C6
:102F00002808AD0701300310B10CB00CAF0CAE0CAB
:102F1000FF3E031D832FFE303105031D902F912F9F
:102F20007E2FAD2F0130A8002808AD070130AE0775
:102F3000003003180130AF07003003180130B0072C
:102F4000003003180130B10701300310B10CB00C90
:102F5000AF0CAE0CFF3E031DA52FFF303105031D46
:102F6000B22FB32F922FBF2F0130AD020130A80036
:102F70000310AE0DAF0DB00DB10DA80BB82FB01BE7
:102F8000C22FC32FC92F02302D020318C82FC92FFB
:102F9000B42F2D18CC2FCD2FD52FFF30AE05FF30FD
:102FA000AF057F30B005FF30B1050310AD0C2D0823
:102FB000A800A901AA01AB0118300310A80DA90DA2
:102FC000AA0DAB0DFF3E031DDD2F2808AE04290816
:102FD000AF042A08B0042B08B1042C080319F12F00
:102FE000F22FF72FA71FF52FF62FF72FB117310864
:102FF000A7003008A6002F08A5002E08A40008008E
:04400E00D420FF3F7C
:00000001FF
