:020000040000FA
:060000000A128A11F52F1F
:10000E00F200412883160317081475288316031768
:10001E008814752883160317081575288316031779
:10002E008815752883160317081675288316031767
:10003E008816752883160317081775288316031755
:10004E008817752883160317091475288316031746
:10005E008914752883160317091575288316031737
:10006E008915752883160317091675288316031725
:10007E00891675287208F000F1017108003A03190B
:10008E00492875287008003A03190928013A0319FE
:10009E000D28033A03191128013A03191528073AB6
:1000AE0003191928013A03191D28033A03192128A7
:1000BE00013A031925280F3A03192928013A031981
:1000CE002D28033A03193128013A03193528073A26
:1000DE0003193928013A03193D2875280800F20042
:1000EE00E828831203131F119F111F129F1222293A
:1000FE00831203131F159F111F129F1222298312A1
:10010E0003131F119F151F129F122229831203130F
:10011E001F159F151F129F122229831203131F11E1
:10012E009F111F169F122229831203131F159F1151
:10013E001F169F122229831203131F119F151F16BC
:10014E009F122229831203131F159F151F169F122C
:10015E002229831203131F119F111F129F1622298A
:10016E00831203131F159F111F129F16222983122C
:10017E0003131F119F151F129F162229831203139B
:10018E001F159F151F129F162229831203131F116D
:10019E009F111F169F162229831203131F159F11DD
:1001AE001F169F162229831203131F119F151F1648
:1001BE009F162229831203131F159F151F169F16B4
:1001CE0022297208F000F1017108003A0319F02893
:1001DE0022297008003A03197828013A03197F285A
:1001EE00033A03198628013A03198D28073A031991
:1001FE009428013A03199B28033A0319A228013ABD
:10020E000319A9280F3A0319B028013A0319B72880
:10021E00033A0319BE28013A0319C528073A0319F0
:10022E00CC28013A0319D328033A0319DA28013AE4
:10023E000319E128222923292429000083120313FC
:10024E009F140800F800780803192E292F29432936
:10025E00F31F3229332943297009FA007109FB0073
:10026E007209FC007309FD00FA0A0319FB0A03194F
:10027E00FC0A0319FD0A4B297308FD007208FC00E5
:10028E007108FB007008FA007308720471047004A0
:10029E00031D522953295C290030F3000030F2006F
:1002AE000030F1000030F000E2299630F4007408BE
:1002BE00F9006E290130F4007408F90701300310BB
:1002CE00FD0CFC0CFB0CFA0CFF3E031D6629FE30E8
:1002DE007D05031D73297429612990290130F400CD
:1002EE007408F9070130FA07003003180130FB07D4
:1002FE00003003180130FC07003003180130FD07F1
:10030E0001300310FD0CFC0CFB0CFA0CFF3E031D20
:10031E008829FF307D05031D952996297529A22967
:10032E000130F9020130F4000310FA0DFB0DFC0D43
:10033E00FD0DF40B9B29FC1BA529A629AC29023027
:10034E0079020318AB29AC2997297918AF29B0295E
:10035E00B829FF30FA05FF30FB057F30FC05FF3072
:10036E00FD050310F90C7908F400F501F601F7010B
:10037E0018300310F40DF50DF60DF70DFF3E031DAD
:10038E00C0297408FA047508FB047608FC04770883
:10039E00FD0478080319D429D529DA29F31FD829A1
:1003AE00D929DA29FD177D08F3007C08F2007B08B5
:1003BE00F1007A08F00008008316031788018901FE
:1003CE00F001F101F20102300A128A15FC260A121E
:1003DE008A110C300A128A1107200A128A110C3067
:1003EE000A128A1176200A128A11831603138801C3
:1003FE0001308600831203138501860188010C1FCC
:10040E00092A0A2A262A831603131E0883120313A7
:10041E00D40006300310D40CFF3E031D112A1E0813
:10042E00D50001300310D50DFF3E031D192A031010
:10043E00550D5404D6005608DC009F140C1343309F
:10044E00BD00FA30BC000030BB000030BA004430B2
:10045E00A3007F30A200C030A1000030A0005C08D5
:10046E00D400D501D601D7015708F3005608F20083
:10047E005508F1005408F00001300A128A112921A2
:10048E000A128A11730883120313A7007208A600BA
:10049E007108A5007008A4000A128A11B7220A1268
:1004AE008A11831203132308C1002208C0002108F9
:1004BE00BF002008BE000A128A1194240A128A1163
:1004CE00831203133D08DB003C08DA003B08D90019
:1004DE003A08D8005B08F3005A08F2005908F100F8
:1004EE005808F0004130F700C830F6000030F50033
:1004FE000030F4000A128A155E270A128A110318B8
:10050E00892A8A2A8F2A8312031388010814062A3D
:10051E00831203135B08F3005A08F2005908F10026
:10052E005808F0004230F7001030F6000030F500A9
:10053E000030F4000A128A155E270A128A11031877
:10054E00A92AAA2AAF2A8312031388018814062A1D
:10055E008312031388010815062A0A128A1100282D
:10056E008312031327088039A8002808B100270832
:10057E00A8002807A9002908B800A61FC72AC82A5C
:10058E00C92A381438080319CD2ACE2ADE2A380A89
:10059E00031DD22AD32ADB2A0030A7000030A60082
:1005AE000030A5000030A400A617A701E62A0030EF
:1005BE00A7000030A6000030A5000030A4002308DC
:1005CE008039A8002808B1062308A8002807A9002A
:1005DE002908B900A21FF42AF52AF62A3914390877
:1005EE000319FA2AFB2A0B2B390A031DFF2A002BAB
:1005FE00082B0030A3000030A2000030A100003014
:10060E00A000A217A301132B0030A3000030A200FC
:10061E000030A1000030A000230822042104200491
:10062E00031D1A2B1B2B342B0030A7000030A60005
:10063E000030A5000030A4008030A6047F30A7044F
:10064E003108A8002808A7042708A3002608A2003E
:10065E002508A1002408A000932C3808031D382B70
:10066E00392B422B0030A3000030A2000030A10035
:10067E000030A000932C3808A800A9012908AB006F
:10068E0039082802AA00031CAB032A087F3EB200D9
:10069E002B080318013E003EB3002708B0002608C1
:1006AE00AF002508AE002408AD000030A7000030D2
:1006BE00A6000030A5000030A4000030B7000030C6
:1006CE00B6000030B5000030B400B901B82B3908BF
:1006DE000319722B732B932B0130A8000310AD0D51
:1006EE00AE0DAF0DB00DA80B752B0130A800031089
:1006FE00A40DA50DA60DA70DA80B7E2BB71F882B3D
:10070E00892B8A2B24140130A8000310B40DB50DCB
:10071E00B60DB70DA80B8C2B23083002031DA12B91
:10072E0022082F02031DA12B21082E02031DA12B2F
:10073E0020082D02031CA42BA52BB42B3717200841
:10074E00AD022108031C210FAE022208031C220F4A
:10075E00AF022308031C230FB0020130A8002808A3
:10076E00B9071A303902031CBD2BBE2B6E2B300875
:10077E002F042E042D040319C52BC62BE52B341480
:10078E00E52B0130A8000310A40DA50DA60DA70D95
:10079E00A80BCA2BB71FD42BD52BD62B2414013064
:1007AE00A8000310B40DB50DB60DB70DA80BD82BC0
:1007BE00FF30B2070318B30AFF30B307A61FE82BAA
:1007CE00E92BC82BB901B71FED2BEE2B0A2CFF30EE
:1007DE003405A800FF303505A900FF303605AA0004
:1007EE007F303705AB002B082A042904280403198F
:1007FE00012C022C052CB901B90A0A2C241C082C38
:10080E00092C0A2C022C390803190E2C0F2C402C03
:10081E000130A407003003180130A507003003187B
:10082E000130A607003003180130A707271C202C23
:10083E00212C402C2408A8002508A9002608AA006F
:10084E002708AB000130AC002B0DAB0CAA0CA90C89
:10085E00A80CAC0B2B2C2B08A7002A08A6002908E5
:10086E00A5002808A4000130B2070318B30A00300F
:10087E00B3073308803AFF0080307F02031D492CF6
:10088E00FF303202031C4C2C4D2C5B2CFF3083129C
:10089E000313B2000030B3000030A7000030A600F2
:1008AE000030A5000030A400831203133308803AF1
:1008BE00FF0080307F02031D662C013032020318C8
:1008CE00692C6A2C772C83120313B201B30100300A
:1008DE00A7000030A6000030A5000030A400B10132
:1008EE00831203133208A8002808B800381C802C85
:1008FE00812C832CA617872C7F30A8002808A605EC
:10090E003808A8000310280CA9002908A7003108F0
:10091E00A8002808A7042B2B0800831203133D08F8
:10092E008039C2004208C7003D08C2004207C3001A
:10093E004308CD00BC1FA42CA52CA62C4D144D088D
:10094E000319AA2CAB2CBA2C4D0A031DAF2CB02CBC
:10095E00B82C0030BD000030BC000030BB000030B1
:10096E00BA00BC17C22C0030BD000030BC000030F5
:10097E00BB000030BA0041088039C2004208C706E9
:10098E004108C2004207C3004308CC00C01FD02C50
:10099E00D12CD22C4C144C080319D62CD72CE62C67
:1009AE004C0A031DDB2CDC2CE42C0030C100003083
:1009BE00C0000030BF000030BE00C017EE2C00306B
:1009CE00C1000030C0000030BF000030BE004C0837
:1009DE000319F22CF32CF82C4D08031DF72CF82CD0
:1009EE00012D0030BD000030BC000030BB000030D7
:1009FE00BA00F42F3A08C2004208F00040080A126A
:100A0E008A15D5260A128A11710883120313D30090
:100A1E007008D2005208C200C301C401C5014508C6
:100A2E00CB004408CA004308C9004208C800530856
:100A3E00C200C301C401C5014508D1004408D0005D
:100A4E004308CF004208CE003B08C2004208F00027
:100A5E003F080A128A15D5260A128A1171088312C6
:100A6E000313D3007008D2005208C200C301C401A0
:100A7E00C5014208C807430803110318013E0319B4
:100A8E00492DC907440803110318013E0319502DBF
:100A9E00CA07450803110318013E0319572DCB074A
:100AAE005308C200C301C401C5014208CE07430862
:100ABE0003110318013E0319652DCF0744080311D6
:100ACE000318013E03196C2DD007450803110318B6
:100ADE00013E0319732DD1073C08C2004208F000F5
:100AEE003E080A128A15D5260A128A117108831237
:100AFE000313D3007008D2005208C200C301C40110
:100B0E00C5014208C807430803110318013E031923
:100B1E00912DC907440803110318013E0319982D9E
:100B2E00CA07450803110318013E03199F2DCB0771
:100B3E005308C200C301C401C5014208CE074308D1
:100B4E0003110318013E0319AD2DCF0744080311FD
:100B5E000318013E0319B42DD007450803110318DD
:100B6E00013E0319BB2DD1070830C2000310C80D7A
:100B7E00C90DCA0DCB0DC20BBD2D3B08C2004208DC
:100B8E00F0003E080A128A15D5260A128A1171083B
:100B9E0083120313D3007008D2005208C200530808
:100BAE00C300C401C5014208C80743080311031856
:100BBE00013E0319E32DC907440803110318013E32
:100BCE000319EA2DCA07450803110318013E03193C
:100BDE00F12DCB073A08C2004208F0003F080A1276
:100BEE008A15D5260A128A11710883120313D300AF
:100BFE007008D2005208C2005308C300C401C501D8
:100C0E004208C807430803110318013E0319102EAA
:100C1E00C907440803110318013E0319172ECA070A
:100C2E00450803110318013E03191E2ECB07083089
:100C3E00C2000310C80DC90DCA0DCB0DC20B202E5C
:100C4E003A08C2004208F0003E080A128A15D5265C
:100C5E000A128A11710883120313D3007008D2008E
:100C6E005208C2005308C300C401C5014208C80798
:100C7E00430803110318013E0319462EC907440801
:100C8E0003110318013E03194D2ECA07450803111F
:100C9E000318013E0319542ECB073B08C20042082D
:100CAE00F00040080A128A15D5260A128A11710818
:100CBE0083120313D3007008D2005208C2005308E7
:100CCE00C300C401C5014208CE074308031103182F
:100CDE00013E0319732ECF07440803110318013E7A
:100CEE0003197A2ED007450803110318013E031984
:100CFE00812ED1073C08C2004208F0003F080A12BC
:100D0E008A15D5260A128A11710883120313D3008D
:100D1E007008D2005208C2005308C300C401C501B6
:100D2E004208CE07430803110318013E0319A02EF3
:100D3E00CF07440803110318013E0319A72ED0074D
:100D4E00450803110318013E0319AE2ED1073C08C6
:100D5E00C2004208F00040080A128A15D5260A126F
:100D6E008A11710883120313D3007008D20052083F
:100D7E00C2005308C300C401C50108300310C20DE0
:100D8E00C30DC40DC50DFF3E031DC52E4208CE0773
:100D9E00430803110318013E0319D62ECF0744084A
:100DAE0003110318013E0319DD2ED0074508031168
:100DBE000318013E0319E42ED1074808C200490862
:100DCE00C3004A08C4004B08C50018300310C50CF8
:100DDE00C40CC30CC20CFF3E031DED2E4208CE0701
:100DEE00430803110318013E0319FE2ECF074408D2
:100DFE0003110318013E0319052FD00745080311EF
:100E0E000318013E03190C2FD1070830C20003103E
:100E1E00C80DC90DCA0DCB0DC20B0E2F4D084C07B8
:100E2E00C200C301C30D4208823ED200430803181C
:100E3E00013EFF3ED300402F0130C2000310CE0D05
:100E4E00CF0DD00DD10DC20B252FCB1F2F2F302F35
:100E5E00312F4E140130C2000310C80DC90DCA0D3A
:100E6E00CB0DC20B332FFF30D2070318D30AFF303E
:100E7E00D307D01F432F442F232FCC01CB1F482F36
:100E8E00492F652FFF304805C200FF304905C300CA
:100E9E00FF304A05C4007F304B05C50045084404A9
:100EAE004304420403195C2F5D2F602FCC01CC0A42
:100EBE00652F4E1C632F642F652F5D2F4C08031971
:100ECE00692F6A2F9B2F0130CE0700300318013097
:100EDE00CF07003003180130D0070030031801305F
:100EEE00D107511C7B2F7C2F9B2F4E08C2004F0821
:100EFE00C3005008C4005108C5000130C600450D9E
:100F0E00C50CC40CC30CC20CC60B862F4508D100F1
:100F1E004408D0004308CF004208CE000130D2076B
:100F2E000318D30A0030D3075308803AFF008030ED
:100F3E007F02031DA42FFF305202031CA72FA82FE0
:100F4E00B32F7F3083120313D1008030D0000030D6
:100F5E00CF000030CE00E82F831203135308803ADF
:100F6E00FF0080307F02031DBE2F01305202031896
:100F7E00C12FC22FCE2F003083120313D1000030A9
:100F8E00D0000030CF000030CE00C701E82F831212
:100F9E0003135208C2004208CD00FF30CE05FF30C9
:100FAE00CF057F30D0050030D1054D1CDF2FE02F4F
:100FBE00E12FD0174D08C2000310420CC3004308A6
:100FCE00D1004708C2004208D1045108BD005008A4
:100FDE00BC004F08BB004E08BA0008008312031372
:100FEE00D801D901DA01DB01DC0183010A128A1171
:020FFE00E329E5
:101DAA00F800F401F5017008F200F3017208F60078
:101DBA007308F700781CE22EE32EE92E7608F40762
:101DCA000318F50A7708F50701300310F60DF70D29
:101DDA00FF3E031DEA2E0310F80C7808031DF62EA9
:101DEA00F72EDF2E7508F1007408F0000800F500E0
:101DFA00831203131F140D2F1F139F13232F1F1753
:101E0A009F13232F1F139F17232F1F179F17232F4C
:101E1A007508F300F4017408003A0319152F232FEB
:101E2A007308013A0319012F033A0319042F013ADF
:101E3A000319072F073A03190A2F232F7003031DCB
:101E4A00272F282F2E2F831603130C178312031301
:101E5A000C137208031D322F332F372F83160313E7
:101E6A009F13472F831603139F17472F1F129F1283
:101E7A005D2F1F169F125D2F1F129F165D2F1F16B3
:101E8A009F165D2F7108F300F4017408003A0319D4
:101E9A004F2F5D2F7308003A03193B2F013A03199C
:101EAA003E2F033A0319412F013A0319442F5D2F9C
:101EBA00080000307005F80000307105F900803024
:101ECA007205FA007F307305FB007B087A047904F7
:101EDA007804031D712F722F7A2F0030F30000301F
:101EEA00F2000030F1000030F00000307405F80014
:101EFA0000307505F90080307605FA007F307705E5
:101F0A00FB007B087A0479047804031D8D2F8E2F39
:101F1A00962F0030F7000030F6000030F500003050
:101F2A00F400F31F992F9A2FBE2F0030F8000030CB
:101F3A00F9000030FA008030FB007008F8027108DE
:101F4A00031C710FA92FAA2FF9027208031C720F22
:101F5A00AF2FB02FFA027308031C730FB52FB62FD9
:101F6A00FB027B08F3007A08F2007908F10078088E
:101F7A00F000F71FC12FC22FE62F0030F800003003
:101F8A00F9000030FA008030FB007408F802750886
:101F9A00031C750FD12FD22FF9027608031C760F76
:101FAA00D72FD82FFA027708031C770FDD2FDE2FE1
:101FBA00FB027B08F7007A08F6007908F500780832
:101FCA00F4008030F3068030F70677087302031DA9
:101FDA00F82F76087202031DF82F75087102031D87
:101FEA00F82F740870020318FB2FFC2FFE2F031022
:061FFA00FF2F0314080094
:04400E00D420FF3F7C
:00000001FF
