:020000040000FA
:060000000A128A110E280D
:10000800FE00030E83120313A7000A08A8000A12B1
:100018008A11792F0A128A11112883120313D10128
:10002800D201D301D401D501D60183010A128A1164
:100038003A2C831203133A088039BF003F08C400E2
:100048003A08BF003F07C0004008CA00B91F2D2862
:100058002E282F284A144A080319332834284328FD
:100068004A0A031D3828392841280030BA000030D0
:10007800B9000030B8000030B700B9174B2800307D
:10008800BA000030B9000030B8000030B7003E08B0
:100098008039BF003F08C4063E08BF003F07C000C4
:1000A8004008C900BD1F59285A285B284914490827
:1000B80003195F2860286F28490A031D64286528EA
:1000C8006D280030BE000030BD000030BC0000309C
:1000D800BB00BD1777280030BE000030BD000030DF
:1000E800BC000030BB00490803197B287C28812804
:1000F8004A08031D802881288A280030BA00003069
:10010800B9000030B8000030B7007D2B3708BF00B9
:100118003F08A9003D080A128A11CB270A128A1142
:10012800831203132A08D0002908CF004F08BF0004
:10013800C001C101C2014208C8004108C700400807
:10014800C6003F08C5005008BF00C001C101C20178
:100158004208CE004108CD004008CC003F08CB0043
:100168003808BF003F08A9003C080A128A11CB27AB
:100178000A128A11831203132A08D0002908CF0013
:100188004F08BF00C001C101C2013F08C5074008B0
:1001980003110318013E0319D228C60741080311A9
:1001A8000318013E0319D928C70742080311031889
:1001B800013E0319E028C8075008BF00C001C1016B
:1001C800C2013F08CB07400803110318013E031979
:1001D800EE28CC07410803110318013E0319F5283E
:1001E800CD07420803110318013E0319FC28CE0766
:1001F8003908BF003F08A9003B080A128A11CB271B
:100208000A128A11831203132A08D0002908CF0082
:100218004F08BF00C001C101C2013F08C50740081F
:1002280003110318013E03191A29C60741080311CF
:100238000318013E03192129C707420803110318AF
:10024800013E03192829C8075008BF00C001C10191
:10025800C2013F08CB07400803110318013E0319E8
:100268003629CC07410803110318013E03193D291B
:10027800CD07420803110318013E03194429CE078C
:100288000830BF000310C50DC60DC70DC80DBF0B44
:1002980046293808BF003F08A9003B080A128A11FE
:1002A800CB270A128A11831203132A08D0002908BF
:1002B800CF004F08BF005008C000C101C2013F086D
:1002C800C507400803110318013E03196C29C60726
:1002D800410803110318013E03197329C70742088F
:1002E80003110318013E03197A29C8073708BF000C
:1002F8003F08A9003C080A128A11CB270A128A1162
:10030800831203132A08D0002908CF004F08BF0022
:100318005008C000C101C2013F08C50740080311C9
:100328000318013E03199929C60741080311031848
:10033800013E0319A029C707420803110318013E0B
:100348000319A729C8070830BF000310C50DC60D3B
:10035800C70DC80DBF0BA9293708BF003F08A90062
:100368003B080A128A11CB270A128A118312031337
:100378002A08D0002908CF004F08BF005008C00045
:10038800C101C2013F08C507400803110318013E17
:100398000319CF29C607410803110318013E0319A1
:1003A800D629C707420803110318013E0319DD299E
:1003B800C8073808BF003F08A9003D080A128A117B
:1003C800CB270A128A11831203132A08D00029089E
:1003D800CF004F08BF005008C000C101C2013F084C
:1003E800CB07400803110318013E0319FC29CC0769
:1003F800410803110318013E0319032ACD074208D7
:1004080003110318013E03190A2ACE073908BF0051
:100418003F08A9003C080A128A11CB270A128A1140
:10042800831203132A08D0002908CF004F08BF0001
:100438005008C000C101C2013F08CB0740080311A2
:100448000318013E0319292ACC0741080311031890
:10045800013E0319302ACD07420803110318013E53
:100468000319372ACE073908BF003F08A9003D08FD
:100478000A128A11CB270A128A11831203132A0837
:10048800D0002908CF004F08BF005008C000C101A4
:10049800C20108300310BF0DC00DC10DC20DFF3ED3
:1004A800031D4E2A3F08CB07400803110318013EDD
:1004B80003195F2ACC07410803110318013E0319E9
:1004C800662ACD07420803110318013E03196D2A55
:1004D800CE074508BF004608C0004708C1004808C5
:1004E800C20018300310C20CC10CC00CBF0CFF3E78
:1004F800031D762A3F08CB07400803110318013E65
:100508000319872ACC07410803110318013E031970
:100518008E2ACD07420803110318013E0319952AB4
:10052800CE070830BF000310C50DC60DC70DC80D96
:10053800BF0B972A4A084907BF00C001C00D3F08F2
:10054800823ECF0040080318013EFF3ED000C92A72
:100558000130BF000310CB0DCC0DCD0DCE0DBF0B60
:10056800AE2AC81FB82AB92ABA2A4B140130BF00CC
:100578000310C50DC60DC70DC80DBF0BBC2AFF3033
:10058800CF070318D00AFF30D007CD1FCC2ACD2AB9
:10059800AC2AC901C81FD12AD22AEE2AFF30450544
:1005A800BF00FF304605C000FF304705C1007F305F
:1005B8004805C2004208410440043F040319E52AE3
:1005C800E62AE92AC901C90AEE2A4B1CEC2AED2AB7
:1005D800EE2AE62A49080319F22AF32A242B0130C5
:1005E800CB07003003180130CC0700300318013066
:1005F800CD07003003180130CE074E1C042B052B05
:10060800242B4B08BF004C08C0004D08C1004E0801
:10061800C2000130C300420DC20CC10CC00CBF0C9B
:10062800C30B0F2B4208CE004108CD004008CC0078
:100638003F08CB000130CF070318D00A0030D0079D
:100648005008803AFF0080307F02031D2D2BFF30B9
:100658004F02031C302B312B3C2B7F3083120313AA
:10066800CE008030CD000030CC000030CB00712BA4
:10067800831203135008803AFF0080307F02031D65
:10068800472B01304F0203184A2B4B2B572B0030B6
:1006980083120313CE000030CD000030CC000030B0
:1006A800CB00C401712B831203134F08BF003F080E
:1006B800CA00FF30CB05FF30CC057F30CD050030B8
:1006C800CE054A1C682B692B6A2BCD174A08BF0038
:1006D80003103F0CC0004008CE004408BF003F088C
:1006E800CE044E08BA004D08B9004C08B8004B08B3
:1006F800B700080083120313B10031080319852BD2
:10070800862B9A2BAC1F892B8A2B9A2B2909B3008D
:100718002A09B4002B09B5002C09B600B30A03193D
:10072800B40A0319B50A0319B60AA22B2C08B60095
:100738002B08B5002A08B4002908B3002C082B049C
:100748002A042904031DA92BAA2BB32B0030AC00C3
:100758000030AB000030AA000030A900392C9630D8
:10076800AD002D08B200C52B0130AD002D08B20731
:1007780001300310B60CB50CB40CB30CFF3E031DCE
:10078800BD2BFE303605031DCA2BCB2BB82BE72B10
:100798000130AD002D08B2070130B307003003184F
:1007A8000130B407003003180130B50700300318D2
:1007B8000130B60701300310B60CB50CB40CB30CFD
:1007C800FF3E031DDF2BFF303605031DEC2BED2B01
:1007D800CC2BF92B0130B2020130AD000310B30D60
:1007E800B40DB50DB60DAD0BF22BB51BFC2BFD2BC7
:1007F800032C023032020318022C032CEE2B321881
:10080800062C072C0F2CFF30B305FF30B4057F30C2
:10081800B505FF30B6050310B20C3208AD00AE01C5
:10082800AF01B00118300310AD0DAE0DAF0DB00D16
:10083800FF3E031D172C2D08B3042E08B4042F08FF
:10084800B5043008B604310803192B2C2C2C312C94
:10085800AC1F2F2C302C312CB6173608AC003508BD
:10086800AB003408AA003308A90008008316031750
:100878008801890183120313A901A90AAA01AB01FE
:1008880002300A128A110D270A128A110C300A1234
:100898008A119C260A128A110C300A128A118D2597
:1008A8000A128A118B170B17831203138C118316E4
:1008B80003138C15851683120313A901AA01AB0132
:1008C80024300A128A15E2270A128A1183160313A2
:1008D80088010130860083120313860188013E30A7
:1008E800BA00FA30B9004330B800FE30B7005508F6
:1008F800A9005608AA000030AA1BFF30AB00AC00C4
:1009080001300A128A117E230A128A1183120313F4
:100918002C08BE002B08BD002A08BC002908BB0013
:100928000A128A111D200A128A11831203133A0827
:10093800D4003908D3003808D2003708D100540849
:10094800AC005308AB005208AA005108A900413076
:10095800B000C830AF000030AE000030AD000A1261
:100968008A11E9240A128A110318BB2CBC2CC12C49
:100978008312031388010814732C83120313540879
:10098800AC005308AB005208AA005108A900423035
:10099800B0001030AF000030AE000030AD000A12D9
:1009A8008A11E9240A128A110318DB2CDC2CE12CA9
:1009B8008312031388018814732C8312031388018C
:1009C8000815732C0A128A110E280030831203139B
:1009D8002905B10000302A05B20080302B05B3008C
:1009E8007F302C05B4003408330432043104031D6D
:1009F800FE2CFF2C072D0030AC000030AB0000307F
:100A0800AA000030A90000302D05B10000302E05E5
:100A1800B20080302F05B3007F303005B4003408B1
:100A2800330432043104031D1A2D1B2D232D0030ED
:100A3800B0000030AF000030AE000030AD00AC1F99
:100A4800262D272D4B2D0030B1000030B20000308C
:100A5800B3008030B4002908B1022A08031C2A0F09
:100A6800362D372DB2022B08031C2B0F3C2D3D2DA4
:100A7800B3022C08031C2C0F422D432DB40234085A
:100A8800AC003308AB003208AA003108A900B01F37
:100A98004E2D4F2D732D0030B1000030B2000030C4
:100AA800B3008030B4002D08B1022E08031C2E0FAD
:100AB8005E2D5F2DB2022F08031C2F0F642D652DAC
:100AC800B3023008031C300F6A2D6B2DB4023408B2
:100AD800B0003308AF003208AE003108AD008030F6
:100AE800AC068030B00630082C02031D852D2F0877
:100AF8002B02031D852D2E082A02031D852D2D0886
:100B080029020318882D892D8B2D03108C2D031491
:100B1800080083120313AB00E12D1F119F111F1250
:100B28009F121B2E1F159F111F129F121B2E1F1184
:100B38009F151F129F121B2E1F159F151F129F1204
:100B48001B2E1F119F111F169F121B2E1F159F1161
:100B58001F169F121B2E1F119F151F169F121B2E4B
:100B68001F159F151F169F121B2E1F119F111F1255
:100B78009F161B2E1F159F111F129F161B2E1F112C
:100B88009F151F129F161B2E1F159F151F129F16AC
:100B98001B2E1F119F111F169F161B2E1F159F110D
:100BA8001F169F161B2E1F119F151F169F161B2EF3
:100BB8001F159F151F169F161B2E2B08A900AA018B
:100BC8002A08003A0319E92D1B2E2908003A0319AF
:100BD800912D013A0319962D033A03199B2D013AD9
:100BE8000319A02D073A0319A52D013A0319AA2DB7
:100BF800033A0319AF2D013A0319B42D0F3A03191B
:100C0800B92D013A0319BE2D033A0319C32D013A30
:100C18000319C82D073A0319CD2D013A0319D22D0E
:100C2800033A0319D72D013A0319DC2D1B2E1C2E6C
:100C38001D2E0000831203139F1408000310720D69
:100C4800730DF4007408FA007A08031D2C2E2D2E5B
:100C5800362E0030F3000030F2000030F100003092
:100C6800F0009B2E7008F4007108F5007208F60079
:100C78007308F7001F300310F70CF60CF50CF40C92
:100C8800FF3E031D3F2E7408F8007808F900F2179C
:100C9800FF30F005FF30F105FF30F2050030F305B5
:100CA8009630FA02FA1F592E5A2E742E7A08803A74
:100CB800973E0318602E612E622E2D2E01300310F0
:100CC800F30CF20CF10CF00CFF3E031D632E013007
:100CD800F4007408FA07031D722E732E622E8B2EF1
:100CE80020307A02031C792E7A2E862E2D2E013082
:100CF800F4000310F00DF10DF20DF30DF40B7D2E41
:100D08000130FA027A08031D8A2E8B2E7B2E790871
:100D180003198F2E902E9B2EF009F109F209F30981
:100D2800F00A0319F10A0319F20A0319F30A080071
:100D380083120313AB00D82E8316031708140C2F45
:100D48008316031788140C2F8316031708150C2F06
:100D58008316031788150C2F8316031708160C2FF4
:100D68008316031788160C2F8316031708170C2FE2
:100D78008316031788170C2F8316031709140C2FD3
:100D88008316031789140C2F8316031709150C2FC4
:100D98008316031789150C2F8316031709160C2FB2
:100DA8008316031789160C2F2B08A900AA012A08F5
:100DB800003A0319E02E0C2F2908003A0319A02E37
:100DC800013A0319A42E033A0319A82E013A03196C
:100DD800AC2E073A0319B02E013A0319B42E033A80
:100DE8000319B82E013A0319BC2E0F3A0319C02E65
:100DF800013A0319C42E033A0319C82E013A0319FC
:100E0800CC2E073A0319D02E013A0319D42E0C2FF1
:100E1800080083120313AE001F141E2F1F139F1305
:100E2800342F1F179F13342F1F139F17342F1F178B
:100E38009F17342F2E08AC00AD012D08003A031976
:100E4800262F342F2C08013A0319122F033A0319BD
:100E5800152F013A0319182F073A03191B2F342F9E
:100E68002903031D382F392F3F2F831603130C171F
:100E7800831203130C132B08031D432F442F482FF1
:100E8800831603139F13602F831603139F17602F76
:100E9800831603131F129F12782F831603131F162E
:100EA8009F12782F831603131F129F16782F83160D
:100EB80003131F169F16782F831203132A08AC00FA
:100EC800AD012D08003A03196A2F782F2C08003A33
:100ED80003194C2F013A0319512F033A0319562FBE
:100EE800013A03195B2F782F08000C1F7C2F7D2FE8
:100EF800AA2F831603131E0883120313A0000630BB
:100F08000310A00CFF3E031D842F2008A100A2019E
:100F18001E08A300A4010310A30DA40D0310A30D24
:100F2800A40D21082304A50022082404A6002508EE
:100F3800D5002608D6000C130F3083120313A00027
:100F4800A00BA42FA72F831203139F148C1DAD2F62
:100F5800AE2FC42F5408F3005308F2005208F100D2
:100F68005108F0000A128A1122260A128A11700802
:100F78000A128A11F4270A128A11831203138C1198
:100F880028088A00270E8300FE0E7E0E09008312B1
:100F98000313B100AD01AE012908AB00AC012B0869
:100FA800AF002C08B000311CDA2FDB2FE12F2F08FF
:100FB800AD070318AE0A3008AE0701300310AF0DB5
:100FC800B00DFF3E031DE22F0310B10C3108031DC5
:100FD800EE2FEF2FD72F2E08AA002D08A900080002
:0C0FE800F000700883120313930008004F
:101FC40083120313AC0083160313871283120313C3
:101FD4002C1DED2FEE2FF42F2B08831603139400E2
:101FE4008715FA2F29082B048316031394008711ED
:0C1FF400831203132C082A049400080038
:04400E00D420FF3F7C
:00000001FF
