:020000040000FA
:060000000A128A110C280F
:10000800FE00030EF2000A08F3000A128A111628ED
:100018000A128A110F28F701F801F90183010A125F
:100028008A115B280B1C19281A2845287708F10023
:100038007108F800831203130608F1007108F7002D
:1000480003307705F10003307106031D2C282D2895
:10005800442803307805F10002307106031D352865
:1000680036283A280130F1007108880703307805EE
:10007800F1007103031D41284228442801308802F9
:100088000B10831203138C1D4A284B285428080888
:100098000A128A11A5200A128A11831203138C11DD
:1000A80073088A00720E8300FE0E7E0E09008B17FD
:1000B8000B178B150B108316031316149614811245
:1000C80083160317880189018B170B1783120313F3
:1000D8008C11831603138C158516F401F501F601AE
:1000E80024300A128A1187200A128A1183160313F0
:1000F8008801061486148312031386018801832855
:100108000A128A110C2883120313A0008316031302
:10011800871283120313201D9228932899287608A2
:1001280083160313940087159F2874087604831692
:100138000313940087118312031320087504940095
:0E0148000800F00070088312031393000800F3
:04400E00D420FF3F7C
:00000001FF
