:020000040000FA
:060000000A128A110C280F
:10000800FE00030EF2000A08F3000A128A11D02932
:100018000A128A110F28F90183010A128A119A29F2
:10002800F6008628831203131F119F111F129F12B7
:10003800C028831203131F159F111F129F12C02877
:10004800831203131F119F151F129F12C0288312BA
:1000580003131F159F151F129F12C0288312031325
:100068001F119F111F169F12C028831203131F15FB
:100078009F111F169F12C028831203131F119F156B
:100088001F169F12C028831203131F159F151F16D2
:100098009F12C028831203131F119F111F129F164E
:1000A800C028831203131F159F111F129F16C02803
:1000B800831203131F119F151F129F16C028831246
:1000C80003131F159F151F129F16C02883120313B1
:1000D8001F119F111F169F16C028831203131F1587
:1000E8009F111F169F16C028831203131F119F15F7
:1000F8001F169F16C028831203131F159F151F165E
:100108009F16C0287608F400F5017508003A03190F
:100118008E28C0287408003A03191628013A0319D2
:100128001D28033A03192428013A03192B28073AF2
:1001380003193228013A03193928033A03194028C8
:10014800013A031947280F3A03194E28013A0319AF
:100158005528033A03195C28013A03196328073A1A
:1001680003196A28013A03197128033A03197828F0
:10017800013A03197F28C0281030F400F40BC22874
:100188000000831203139F140800F6000329831646
:100198000317081437298316031788143729831679
:1001A8000317081537298316031788153729831667
:1001B8000317081637298316031788163729831655
:1001C8000317081737298316031788173729831643
:1001D8000317091437298316031789143729831637
:1001E8000317091537298316031789153729831625
:1001F800031709163729831603178916372976082E
:10020800F400F5017508003A03190B293729740819
:10021800003A0319CB28013A0319CF28033A0319E6
:10022800D328013A0319D728073A0319DB28013ADA
:100238000319DF28033A0319E328013A0319E728C9
:100248000F3A0319EB28013A0319EF28033A031967
:10025800F328013A0319F728073A0319FB28013A4A
:100268000319FF283729080083120313A0001F145D
:1002780049291F139F135F291F179F135F291F13F6
:100288009F175F291F179F175F292008F700F8019C
:100298007808003A031951295F297708013A0319A8
:1002A8003D29033A03194029013A03194329073A1A
:1002B800031946295F297403031D632964296A29E0
:1002C800831603130C17831203130C137608031DEC
:1002D8006E296F297329831603139F1383298316A5
:1002E80003139F1783291F129F1299291F169F1204
:1002F80099291F129F1699291F169F169929750863
:10030800F700F8017808003A03198B29992977082A
:10031800003A03197729013A03197A29033A03198C
:100328007D29013A031980299929080083160317A2
:1003380088018901F401F40AF501F60102300A1274
:100348008A1138210A128A110C300A128A11C9201E
:100358000A128A110C300A128A1114200A128A1100
:100368008B170B17831203138C11831603138C1529
:100378008516F401F501F60124300A128A11F721D5
:100388000A128A11831603130614831203138601B3
:10039800CC290A128A110C28831203130C1FD529A1
:1003A800D629E3291E08F1007108F9000C13103052
:1003B800F100F10BDD290000831203139F148C1D3B
:1003C800E629E729F02979080A128A110D220A126A
:1003D8008A11831203138C1173088A00720E83002A
:1003E800FE0E7E0E0900F700831603138712771D91
:1003F800FE29FF29032A760894008715072A74081E
:100408007604940087117708750483120313940007
:0E0418000800F0007008831203139300080020
:04400E00D420FF3F7C
:00000001FF
